:100000000C9461000C947E000C947E000C947E0095
:100010000C947E000C947E000C947E000C947E0068
:100020000C947E000C947E000C947E000C947E0058
:100030000C947E000C947E000C947E000C947E0048
:100040000C9498010C947E000C947E000C947E001D
:100050000C947E000C947E000C947E000C947E0028
:100060000C947E000C947E00000000002400270009
:100070002A0000000000250028002B0000000000DE
:1000800023002600290004040404040404040202DA
:100090000202020203030303030301020408102007
:1000A0004080010204081020010204081020000012
:1000B0000008000201000003040700000000000027
:1000C000000011241FBECFEFD8E0DEBFCDBF11E08E
:1000D000A0E0B1E0ECE5F0E102C005900D92AE3099
:1000E000B107D9F721E0AEE0B1E001C01D92AF3118
:1000F000B207E1F70E94E2010C942C080C94000076
:10010000833081F028F4813099F08230A1F0089595
:100110008730A9F08830B9F08430D1F48091800024
:100120008F7D03C0809180008F7780938000089539
:1001300084B58F7702C084B58F7D84BD089580918A
:10014000B0008F7703C08091B0008F7D8093B000A6
:100150000895CF93DF93E9EBF0E08491E5EAF0E0D6
:10016000D491E1E9F0E0C491CC2391F081110E9497
:100170008000EC2FF0E0EE0FFF1FE458FF4FA59139
:10018000B491EC91ED2381E090E021F480E002C095
:1001900080E090E0DF91CF9108951F93CF93DF939C
:1001A000282F30E0F901E255FF4F8491F901E6561E
:1001B000FF4FD491F901EA57FF4FC491CC23C9F006
:1001C000162F81110E948000EC2FF0E0EE0FFF1F30
:1001D000EE58FF4FA591B4918FB7F894111105C057
:1001E0009C91ED2FE095E92302C0EC91ED2BEC936F
:1001F0008FBFDF91CF911F910895CF93DF9390E050
:10020000FC01E656FF4F2491FC01EA57FF4F849111
:10021000882361F190E0880F991FFC01E859FF4F96
:10022000C591D491FC01EE58FF4FA591B491611195
:1002300009C09FB7F8948881209582238883EC9128
:100240002E230BC0623061F49FB7F8943881822F5F
:10025000809583238883EC912E2B2C939FBF06C01F
:100260008FB7F894E8812E2B28838FBFDF91CF9131
:1002700008953FB7F8948091130190911401A091D3
:100280001501B091160126B5A89B05C02F3F19F0A6
:100290000196A11DB11D3FBFBA2FA92F982F882706
:1002A000820F911DA11DB11DBC01CD0142E0660F61
:1002B000771F881F991F4A95D1F708958F929F92B3
:1002C000AF92BF92CF92DF92EF92FF926B017C01CF
:1002D0000E9439014B015C01C114D104E104F10415
:1002E000F1F00E943901DC01CB0188199909AA09B2
:1002F000BB09883E9340A105B10570F321E0C21A05
:10030000D108E108F10888EE880E83E0981EA11C50
:10031000B11CC114D104E104F10419F7DDCFFF9041
:10032000EF90DF90CF90BF90AF909F908F90089507
:100330001F920F920FB60F9211242F933F938F931A
:100340009F93AF93BF9380910F0190911001A09163
:100350001101B091120130910E0123E0230F2D37CE
:1003600020F40196A11DB11D05C026E8230F0296B9
:10037000A11DB11D20930E0180930F0190931001D8
:10038000A0931101B0931201809113019091140177
:10039000A0911501B09116010196A11DB11D809388
:1003A000130190931401A0931501B0931601BF910E
:1003B000AF919F918F913F912F910F900FBE0F9012
:1003C0001F901895789484B5826084BD84B581604F
:1003D00084BD85B5826085BD85B5816085BD809110
:1003E0006E00816080936E00109281008091810088
:1003F0008260809381008091810081608093810080
:10040000809180008160809380008091B100846041
:100410008093B1008091B00081608093B0008091A2
:100420007A00846080937A0080917A008260809361
:100430007A0080917A00816080937A0080917A00BE
:10044000806880937A001092C10061E082E00E948F
:10045000FD0061E085E00E94FD0061E083E00E9414
:10046000FD0061E086E00E94FD0061E088E00E94FE
:10047000FD0061E081E10E94FD0061E081E10E94F8
:10048000CD0062E08BE00E94FD0080E090E00E94E1
:10049000DF0790E0909318018093170140977CF05C
:1004A00080E091E09F938F930E944B0564E670E09B
:1004B00080E090E00E945E010F900F90FFCF61E01E
:1004C00088E00E94CD000E94A900892BE1F764E634
:1004D00070E080E090E00E945E010E94A900892BFC
:1004E000E1F761E085E00E94CD0060E088E00E94D5
:1004F000CD00C8EED3E00BE91FE061E082E00E948E
:10050000CD00C8010197F1F760E082E00E94CD00C4
:10051000C8010197F1F7219781F760E081E10E941E
:10052000CD0061E086E00E94CD00C4E8D3E00BE39B
:100530001FE161E083E00E94CD00C8010197F1F75F
:1005400060E083E00E94CD00C8010197F1F7219798
:1005500081F761E081E10E94CD0061E088E00E94C6
:10056000CD000E94A900892BE1F764E670E080E0ED
:1005700090E00E945E010E94A900892BE1F760E0F3
:1005800081E10E94CD0060E085E00E94CD0060E046
:1005900088E00E94CD00C4E8D3E00BE91FE061E0F1
:1005A00082E00E94CD00C8010197F1F760E082E08F
:1005B0000E94CD00C8010197F1F7219781F760E013
:1005C00085E00E94CD000DE010E04BE9E42E4FE005
:1005D000F42ECAE0D0E061E082E00E94CD00C701C5
:1005E0000197F1F760E082E00E94CD00C70101971A
:1005F000F1F7219781F768EB7BE080E090E00E94C3
:100600005E010150110929F761E085E00E94CD00EB
:10061000C8E7D0E00BE91FE061E082E00E94CD0076
:10062000C8010197F1F760E082E00E94CD00C801A7
:100630000197F1F7219781F760E086E00E94CD00F5
:10064000CCE2D1E00BE31FE161E083E00E94CD004A
:10065000C8010197F1F760E083E00E94CD00C80176
:100660000197F1F7219781F761E086E00E94CD00C4
:10067000C4E6D0E00BE91FE061E083E00E94CD001A
:10068000C8010197F1F760E083E00E94CD00C80146
:100690000197F1F7219781F768EE73E080E090E031
:1006A0000E945E0160E085E00E94CD000DE010E058
:1006B0003BE9E32E3FE0F32ECAE0D0E061E082E0C8
:1006C0000E94CD00C7010197F1F760E082E00E942F
:1006D000CD00C7010197F1F7219781F768EB7BE027
:1006E00080E090E00E945E010150110929F761E06D
:1006F00085E00E94CD00C8E7D0E00BE91FE061E093
:1007000082E00E94CD00C8010197F1F760E082E02D
:100710000E94CD00C8010197F1F7219781F760E0B1
:1007200086E00E94CD00CCE2D1E00BE31FE161E066
:1007300083E00E94CD00C8010197F1F760E083E0FB
:100740000E94CD00C8010197F1F7219781F761E080
:1007500086E00E94CD00C4E6D0E00BE91FE061E036
:1007600083E00E94CD00C8010197F1F760E083E0CB
:100770000E94CD00C8010197F1F7219781F768EE3B
:1007800073E080E090E00E945E0160E085E00E94FE
:10079000CD000DE010E02BE9E22E2FE0F22ECAE0B2
:1007A000D0E061E082E00E94CD00C7010197F1F73F
:1007B00060E082E00E94CD00C7010197F1F7219728
:1007C00081F768EB7BE080E090E00E945E010150E1
:1007D000110929F761E085E00E94CD00C8E7D0E06B
:1007E0000BE91FE061E082E00E94CD00C8010197A3
:1007F000F1F760E082E00E94CD00C8010197F1F7B7
:10080000219781F760E086E00E94CD00CCE2D1E044
:100810000BE31FE161E083E00E94CD00C801019776
:10082000F1F760E083E00E94CD00C8010197F1F785
:10083000219781F761E086E00E94CD00C4E6D0E018
:100840000BE91FE061E083E00E94CD00C801019741
:10085000F1F760E083E00E94CD00C8010197F1F755
:10086000219781F768EE73E080E090E00E945E01DE
:1008700060E085E00E94CD000DE010E09BE9E92EEC
:100880009FE0F92ECAE0D0E061E082E00E94CD0056
:10089000C7010197F1F760E082E00E94CD00C70137
:1008A0000197F1F7219781F768EB7BE080E090E01A
:1008B0000E945E010150110929F761E085E00E9464
:1008C000CD00C8E7D0E00BE91FE061E082E00E94C4
:1008D000CD00C8010197F1F760E082E00E94CD00F1
:1008E000C8010197F1F7219781F760E086E00E9447
:1008F000CD00CCE2D1E00BE31FE161E083E00E9498
:10090000CD00C8010197F1F760E083E00E94CD00BF
:10091000C8010197F1F7219781F761E086E00E9415
:10092000CD00C4E6D0E00BE91FE061E083E00E9467
:10093000CD00C8010197F1F760E083E00E94CD008F
:10094000C8010197F1F7219781F768EE73E080E025
:1009500090E00E945E0160E085E00E94CD000DE025
:1009600010E08BE9E82E8FE0F82ECAE0D0E061E0DD
:1009700082E00E94CD00C7010197F1F760E082E0BC
:100980000E94CD00C7010197F1F7219781F768EB2D
:100990007BE080E090E00E945E010150110929F7A0
:1009A00061E085E00E94CD00C4EFD1E00BE91FE0DB
:1009B00061E082E00E94CD00C8010197F1F760E09C
:1009C00082E00E94CD00C8010197F1F7219781F7DD
:1009D00060E086E00E94CD00C6E2D2E00BE91FE0B5
:1009E00061E083E00E94CD00C8010197F1F760E06B
:1009F00083E00E94CD00C8010197F1F7219781F7AC
:100A000064EF71E080E090E00E945E0161E086E0CA
:100A10000E94CD00C2ECD1E00BE91FE061E083E071
:100A20000E94CD00C8010197F1F760E083E00E94C9
:100A3000CD00C8010197F1F7219781F760E085E0CB
:100A40000E94CD00C4EFD1E00BE91FE061E082E03D
:100A50000E94CD00C8010197F1F760E082E00E949A
:100A6000CD00C8010197F1F7219781F761E081E19D
:100A70000E94CD0080E090E00E94DF07682F70E0C8
:100A80006F5F7F4F709318016093170180E090E0D3
:100A90000E94E707FFCFA0E0B0E0E1E5F5E00C94AD
:100AA0000508AE014B5F5F4FFA0161917191AF0193
:100AB00080911B0190911C010E946105E2E00C9461
:100AC0002108ACE0B0E0E7E6F5E00C94F5077C0126
:100AD0006B018A01FC0117821682838181FFBDC1EF
:100AE000CE0101964C01F7019381F60193FD8591AA
:100AF00093FF81916F01882309F4ABC1853239F4EA
:100B000093FD859193FF81916F01853229F4B7019F
:100B100090E00E944907E7CF512C312C20E0203291
:100B2000A0F48B3269F030F4803259F0833269F4EA
:100B300020612CC08D3239F0803339F4216026C019
:100B40002260246023C0286021C027FD27C030ED2B
:100B5000380F3A3078F426FF06C0FAE05F9E300D79
:100B60001124532E13C08AE0389E300D1124332EE9
:100B700020620CC08E3221F426FD6BC1206406C0B9
:100B80008C3611F4206802C0883641F4F60193FDDA
:100B9000859193FF81916F018111C1CF982F9F7D26
:100BA0009554933028F40C5F1F4FFFE3F9830DC079
:100BB000833631F0833771F0833509F05BC022C092
:100BC000F801808189830E5F1F4F44244394512C88
:100BD000540115C03801F2E06F0E711CF801A080BD
:100BE000B18026FF03C0652D70E002C06FEF7FEF7C
:100BF000C5012C870E943E072C0183012C852F778D
:100C0000222E17C03801F2E06F0E711CF801A0808F
:100C1000B18026FF03C0652D70E002C06FEF7FEF4B
:100C2000C5012C870E9433072C012C852068222EB9
:100C3000830123FC1BC0832D90E048165906B0F4B5
:100C4000B70180E290E00E9449073A94F4CFF501A1
:100C500027FC859127FE81915F01B70190E00E94FA
:100C6000490731103A94F1E04F1A510841145104E8
:100C700071F7E5C0843611F0893639F5F80127FFA0
:100C800007C060817181828193810C5F1F4F08C012
:100C900060817181072E000C880B990B0E5F1F4F2E
:100CA0002F76722E97FF09C090958095709561956B
:100CB0007F4F8F4F9F4F2068722E2AE030E0A401B3
:100CC0000E948107A82EA81844C0853729F42F7EDA
:100CD000B22E2AE030E025C0F22FF97FBF2E8F36EA
:100CE000C1F018F4883579F0B4C0803719F088372E
:100CF00021F0AFC02F2F2061B22EB4FE0DC08B2D7E
:100D00008460B82E09C024FF0AC09F2F9660B92EB8
:100D100006C028E030E005C020E130E002C020E15C
:100D200032E0F801B7FE07C0608171818281938152
:100D30000C5F1F4F06C06081718180E090E00E5F04
:100D40001F4FA4010E948107A82EA818FB2DFF7732
:100D50007F2E76FE0BC0372D3E7FA51450F474FE17
:100D60000AC072FC08C0372D3E7E05C0BA2C372D54
:100D700003C0BA2C01C0B52C34FF0DC0FE01EA0D32
:100D8000F11D8081803311F4397E09C032FF06C025
:100D9000B394B39404C0832F867809F0B39433FDE1
:100DA00013C030FF06C05A2CB31418F4530C5B1850
:100DB000B32CB31468F4B70180E290E03C870E9442
:100DC0004907B3943C85F5CFB31410F43B1801C028
:100DD000312C34FF12C0B70180E390E03C870E94C1
:100DE00049073C8532FF17C031FD03C088E790E01A
:100DF00002C088E590E0B7010CC0832F867859F0D7
:100E000031FF02C08BE201C080E237FD8DE2B70105
:100E100090E00E944907A51438F4B70180E390E000
:100E20000E9449075A94F7CFAA94F401EA0DF11DE4
:100E30008081B70190E00E944907A110F5CF3320CF
:100E400009F451CEB70180E290E00E9449073A943C
:100E5000F6CFF7018681978102C08FEF9FEF2C9626
:100E6000E2E10C941108FC01059061507040011002
:100E7000D8F7809590958E0F9F1F0895FC016150C3
:100E8000704001900110D8F7809590958E0F9F1FAC
:100E900008950F931F93CF93DF93FB01238121FDCF
:100EA00003C08FEF9FEF28C022FF16C046815781F5
:100EB000248135814217530744F4A081B1819D01FB
:100EC0002F5F3F4F318320838C93268137812F5FA3
:100ED0003F4F3783268310C0EB01092F182F008462
:100EE000F185E02D0995892BE1F68E819F81019690
:100EF0009F838E83812F902FDF91CF911F910F9130
:100F00000895FA01AA27283051F1203181F1E8949F
:100F10006F936E7F6E5F7F4F8F4F9F4FAF4FB1E0EC
:100F20003ED0B4E03CD0670F781F891F9A1FA11DE7
:100F3000680F791F8A1F911DA11D6A0F711D811DE8
:100F4000911DA11D20D009F468943F912AE0269FAD
:100F500011243019305D3193DEF6CF010895462F0C
:100F60004770405D4193B3E00FD0C9F7F6CF462FED
:100F70004F70405D4A3318F0495D31FD4052419356
:100F800002D0A9F7EACFB4E0A69597958795779513
:100F90006795BA95C9F700976105710508959B019A
:100FA000AC010A2E06945795479537952795BA9523
:100FB000C9F7620F731F841F951FA01D0895F9992B
:100FC000FECF92BD81BDF89A992780B50895262F4E
:100FD000F999FECF1FBA92BD81BD20BD0FB6F8941E
:100FE000FA9AF99A0FBE019608952F923F924F9266
:100FF0005F926F927F928F929F92AF92BF92CF92A9
:10100000DF92EF92FF920F931F93CF93DF93CDB7B1
:10101000DEB7CA1BDB0B0FB6F894DEBF0FBECDBF29
:1010200009942A88398848885F846E847D848C84FA
:101030009B84AA84B984C884DF80EE80FD800C8103
:101040001B81AA81B981CE0FD11D0FB6F894DEBFE6
:0C1050000FBECDBFED010895F894FFCF56
:0E105C00424C4F434B20464F524556455200E2
:107E0000112484B714BE81FFF0D085E080938100F7
:107E100082E08093C00088E18093C10086E0809377
:107E2000C20080E18093C4008EE0C9D0259A86E02C
:107E300020E33CEF91E0309385002093840096BBD3
:107E4000B09BFECF1D9AA8958150A9F7CC24DD24C4
:107E500088248394B5E0AB2EA1E19A2EF3E0BF2EE7
:107E6000A2D0813461F49FD0082FAFD0023811F036
:107E7000013811F484E001C083E08DD089C08234E0
:107E800011F484E103C0853419F485E0A6D080C0E4
:107E9000853579F488D0E82EFF2485D0082F10E0AE
:107EA000102F00270E291F29000F111F8ED06801E7
:107EB0006FC0863521F484E090D080E0DECF843638
:107EC00009F040C070D06FD0082F6DD080E0C81688
:107ED00080E7D80618F4F601B7BEE895C0E0D1E017
:107EE00062D089930C17E1F7F0E0CF16F0E7DF06D8
:107EF00018F0F601B7BEE89568D007B600FCFDCFD4
:107F0000A601A0E0B1E02C9130E011968C91119780
:107F100090E0982F8827822B932B1296FA010C0160
:107F200087BEE89511244E5F5F4FF1E0A038BF0790
:107F300051F7F601A7BEE89507B600FCFDCF97BE46
:107F4000E89526C08437B1F42ED02DD0F82E2BD052
:107F50003CD0F601EF2C8F010F5F1F4F84911BD097
:107F6000EA94F801C1F70894C11CD11CFA94CF0C13
:107F7000D11C0EC0853739F428D08EE10CD085E9AC
:107F80000AD08FE07ACF813511F488E018D01DD067
:107F900080E101D065CF982F8091C00085FFFCCF94
:107FA0009093C60008958091C00087FFFCCF809118
:107FB000C00084FD01C0A8958091C6000895E0E648
:107FC000F0E098E1908380830895EDDF803219F02E
:107FD00088E0F5DFFFCF84E1DECF1F93182FE3DFCA
:107FE0001150E9F7F2DF1F91089580E0E8DFEE27F6
:047FF000FF270994CA
:027FFE00040479
:0400000300007E007B
:00000001FF
