:100000000C9462000C948A000C948A000C948A0070
:100010000C948A000C948A000C948A000C948A0038
:100020000C948A000C948A000C948A000C94770437
:100030000C948A000C948A000C948A000C948A0018
:100040000C942D040C948A000C94FB030C94D5039F
:100050000C948A000C948A000C948A000C948A00F8
:100060000C948A000C948A000000000023002600F3
:10007000290000000000240027002A0000000000E2
:10008000250028002B0004040404040404040202D4
:100090000202020203030303030301020408102007
:1000A0004080010204081020010204081020000012
:1000B0000008000201000003040700000000000027
:1000C00000007D0511241FBECFEFD8E0DEBFCDBFFD
:1000D00021E0A8E1B1E001C01D92AD3EB207E1F719
:1000E00011E0A0E0B1E0EAE4F1E102C005900D9278
:1000F000A831B107D9F710E0C2E6D0E004C02197DB
:10010000FE010E940407C136D107C9F70E94DB0532
:100110000C94A3080C940000CF92DF92EF92FF9210
:10012000DC01A03282E0B8070CF03EC0B7FD06C08B
:10013000A53BB1052CF0A4EBB0E002C0A0E0B0E01C
:100140008091EB0128E830E06901C81AD10887FDE9
:10015000D394CC0CDD1CCC0CDD1C0D2C000CEE085B
:10016000FF088091EC0128E532E0281B310987FD6A
:100170003395220F331F220F331FA901330F660B54
:10018000770B9A01AB012C193D094E095F090E94BA
:100190006A0824EB30E040E050E00E944008C20EC4
:1001A000D31EE41EF51ED6019091EA019C3098F50D
:1001B0008091EB0148E850E0481B510987FD5395B9
:1001C000440F551F440F551FA417B5078CF080919D
:1001D000EC0128E532E0281B310987FD3395220F19
:1001E000331F220F331FAD012A173B070CF4A9015F
:1001F00042505109440F551F2FB7F894892F90E0B2
:10020000FC01EE0FFF1F8E0F9F1FFC01EB53FE4FF3
:10021000528341832FBFFF90EF90DF90CF900895DE
:10022000CF92DF92EF92FF920F931F93CF93DF93C2
:100230006C017A018B01C0E0D0E0CE15DF0589F0BA
:10024000D8016D918D01D601ED91FC910190F08165
:10025000E02DC6010995892B11F47E0102C021967B
:10026000ECCFC701DF91CF911F910F91FF90EF90DD
:10027000DF90CF900895FC01918D828D981761F0E9
:10028000828DDF01A80FB11D5D968C91928D9F5FCD
:100290009F73928F90E008958FEF9FEF0895FC0178
:1002A000918D828D981731F0828DE80FF11D858D2B
:1002B00090E008958FEF9FEF0895FC01918D228DBE
:1002C000892F90E0805C9F4F821B91098F73992743
:1002D000089588E291E00E945D0121E0892B09F4F4
:1002E00020E0822F0895FC01848DDF01A80FB11D4D
:1002F000A35ABF4F2C91848D90E001968F7399275C
:10030000848FA689B7892C93A089B1898C91806448
:100310008C93938D848D981306C00288F389E02D09
:1003200080818F7D80830895EF92FF920F931F93BA
:10033000CF93DF93EC0181E0888F9B8D8C8D981398
:1003400005C0E889F989808185FD24C0F62E0B8DD2
:1003500010E00F5F1F4F0F731127E02E8C8DE812F6
:100360000CC00FB607FCFACFE889F989808185FFB8
:10037000F5CFCE010E947301F1CF8B8DFE01E80F06
:10038000F11DE35AFF4FF0820B8FEA89FB898081D0
:10039000806207C0EE89FF896083E889F9898081DE
:1003A0008064808381E090E0DF91CF911F910F9175
:1003B000FF90EF900895CF93DF93EC01888D882311
:1003C000C9F0EA89FB89808185FD05C0A889B989C2
:1003D0008C9186FD0FC00FB607FCF5CF808185FF9D
:1003E000F2CFA889B9898C9185FFEDCFCE010E940B
:1003F0007301E7CFDF91CF91089580E090E0892BE2
:1004000029F00E94690181110C940000089590E088
:10041000FC01E255FF4F3491FC01E656FF4F249159
:10042000FC01EA57FF4FE491EE2309F43BC033236C
:1004300039F1333091F038F43130A9F0323001F530
:1004400084B58F7D12C0373091F03830A1F0343050
:10045000B9F4809180008F7D03C0809180008F77F8
:10046000809380000DC084B58F7784BD09C08091D2
:10047000B0008F7703C08091B0008F7D8093B00073
:10048000F0E0EE0FFF1FE458FF4FA591B4918FB736
:10049000F894EC91611103C020952E2301C02E2BFE
:1004A0002C938FBF0895CF93DF9390E0FC01E65625
:1004B000FF4F2491FC01EA57FF4F8491882361F19B
:1004C00090E0880F991FFC01EE58FF4FC591D49121
:1004D000FC01E458FF4FA591B491611109C09FB789
:1004E000F8948881209582238883EC912E230BC079
:1004F000623061F49FB7F8943881822F809583230E
:100500008883EC912E2B2C939FBF06C08FB7F89455
:10051000E8812E2B28838FBFDF91CF9108953FB7BD
:10052000F8948091220190912301A0912401B0912F
:10053000250126B5A89B05C02F3F19F00196A11DE6
:10054000B11D3FBFBA2FA92F982F8827820F911D69
:10055000A11DB11DBC01CD0142E0660F771F881FB0
:10056000991F4A95D1F708958F929F92AF92BF92AB
:10057000CF92DF92EF92FF920E948F024B015C01BB
:100580008EE1C82ED12CE12CF12C0E948F02DC01CF
:10059000CB0188199909AA09BB09883E9340A10596
:1005A000B10558F021E0C21AD108E108F10888EE3F
:1005B000880E83E0981EA11CB11CC114D104E10473
:1005C000F10419F7FF90EF90DF90CF90BF90AF90BC
:1005D0009F908F900895009769F0FC010190002092
:1005E000E9F73197AF01481B590BBC0188E291E054
:1005F0000C94100180E090E008958F929F92AF924A
:10060000BF92CF92DF92EF92FF920F931F93CF93FF
:10061000DF93CDB7DEB7A1970FB6F894DEBF0FBE5C
:10062000CDBF6C01990FEE08FF08F7FE31C0E091D5
:100630002801F09129010190F081E02D6DE288E21E
:1006400091E009958C0122273327A9012C193D0936
:100650004E095F0919A2CE0181967C019AE0892E8C
:10066000912CA12CB12CCA01B901A50194010E94C1
:100670007208605DF70162937F0121153105410524
:10068000510589F7CF010E94EB02800F911F1DC019
:10069000A701960119A28E010F5D1F4F8AE0C82E97
:1006A000D12CE12CF12CCA01B901A70196010E94BD
:1006B0007208605DF80162938F01211531054105D3
:1006C000510589F7CF010E94EB02A1960FB6F8946D
:1006D000DEBF0FBECDBFDF91CF911F910F91FF9075
:1006E000EF90DF90CF90BF90AF909F908F90089544
:1006F0000E943B080F931F9360E087E00E9407026F
:1007000083E090E00197F1F761E087E00E94070243
:1007100087E390E00197F1F760E087E00E9407022D
:10072000E2EAF0E06491EEE8F0E0E491F0E0EE0F50
:10073000FF1FE859FF4F8591949100E412E42FE0E8
:1007400030E0462F0E94380561157105810591053D
:1007500049F0DC01CB010196A11DB11DBC01CD0109
:100760009F7003C060E070E0CB016093180170934C
:10077000190180931A0190931B010E94420726E9F8
:1007800033E44BE05DE30E94A60720E030E040E068
:100790005FE30E94A6070E940A07709327016093F7
:1007A0002601CB011F910F9108951F920F920FB652
:1007B0000F9211242F933F934F935F936F937F93E7
:1007C0008F939F93AF93BF93EF93FF9388E291E052
:1007D0000E947301FF91EF91BF91AF919F918F9113
:1007E0007F916F915F914F913F912F910F900FBE2D
:1007F0000F901F9018951F920F920FB60F92112411
:100800002F938F939F93EF93FF93E0913801F09193
:1008100039018081E0913E01F0913F0182FD12C0DB
:100820009081809141018F5F8F73209142018217E7
:1008300051F0E0914101F0E0E85DFE4F958F80932B
:10084000410101C08081FF91EF919F918F912F9184
:100850000F900FBE0F901F9018951F920F920FB61A
:100860000F9211242F933F938F939F93AF93BF9336
:1008700080911E0190911F01A0912001B091210152
:1008800030911D0123E0230F2D3720F40196A11D87
:10089000B11D05C026E8230F0296A11DB11D2093AE
:1008A0001D0180931E0190931F01A0932001B0931E
:1008B00021018091220190912301A0912401B09106
:1008C00025010196A11DB11D809322019093230162
:1008D000A0932401B0932501BF91AF919F918F9177
:1008E0003F912F910F900FBE0F901F9018951F9260
:1008F0000F920FB60F9211242F933F934F935F9354
:100900006F937F938F939F93AF93BF93EF93FF93D7
:1009100080911C0187FF05C0109285001092840011
:100920001BC020911C01022E000C330B8091E901A9
:1009300090E02817390784F480911C01082E000CE0
:10094000990BFC01EE0FFF1F8E0F9F1FFC01EB5355
:10095000FE4F808186FD15C080911C018F5F8093C2
:100960001C0120911C01022E000C330B8091E90127
:1009700090E028173907C4F480911C018C3064F191
:1009800013C080911C01082E000C990BFC01EE0F86
:10099000FF1F8E0F9F1FFC01EB53FE4F808160E015
:1009A0008F730E940702D8CF8091840090918500B8
:1009B000049680349C4918F480E49CE905C0809139
:1009C000840090918500049690938900809388001C
:1009D0008FEF80931C013BC02091840030918500F3
:1009E00080911C01082E000C990BFC01EE0FFF1FDB
:1009F0008E0F9F1FFC01EB53FE4F81819281820F6E
:100A0000931F909389008093880080911C01082E89
:100A1000000C990BFC01EE0FFF1F8E0F9F1FFC01B6
:100A2000EB53FE4F808186FF12C080911C01082E7F
:100A3000000C990BFC01EE0FFF1F8E0F9F1FFC0196
:100A4000EB53FE4F808161E08F730E940702FF919C
:100A5000EF91BF91AF919F918F917F916F915F9136
:100A60004F913F912F910F900FBE0F901F901895AF
:100A7000CF92DF92EF92FF920F931F93E82FF92FFF
:100A800005C0015011092109310961F190819623B6
:100A90009417B9F305C0015011092109310911F169
:100AA000908196239413F7CFC12CD12CE12CF12CFB
:100AB0000AC08FEFC81AD80AE80AF80A0C151D05F3
:100AC0002E053F0579F080818623841791F36C2DE4
:100AD0007D2D8E2D9F2D1F910F91FF90EF90DF9018
:100AE000CF90089560E070E080E090E01F910F915A
:100AF000FF90EF90DF90CF90089510922B0110920D
:100B00002A0188EE93E0A0E0B0E080932C0190935E
:100B10002D01A0932E01B0932F0188E091E09093D6
:100B200029018093280185EC90E090933501809312
:100B3000340184EC90E0909337018093360180EC8F
:100B400090E0909339018093380181EC90E090938C
:100B50003B0180933A0182EC90E090933D018093B9
:100B60003C0186EC90E090933F0180933E0110920F
:100B70004101109242011092430110924401809170
:100B8000E9018C30A0F491E0980F9093E9018093F3
:100B9000EA0190E0FC01EE0FFF1F8E0F9F1FFC018A
:100BA000EB53FE4F88EB9BE09283818308958FEF98
:100BB0008093EA010895789484B5826084BD84B5F9
:100BC000816084BD85B5826085BD85B5816085BD48
:100BD00080916E00816080936E0010928100809100
:100BE0008100826080938100809181008160809388
:100BF0008100809180008160809380008091B100AD
:100C000084608093B1008091B00081608093B000D7
:100C100080917A00846080937A0080917A0082606B
:100C200080937A0080917A00816080937A0080912D
:100C30007A00806880937A001092C10061E087E0BA
:100C40000E94530260E088E00E945302E091380164
:100C5000F091390182E08083E0913401F091350117
:100C60001082E0913601F09137018FEC8083109271
:100C70004001E0913C01F0913D0186E08083E091EC
:100C80003A01F0913B01808180618083E0913A01DB
:100C9000F0913B01808188608083E0913A01F0917E
:100CA0003B01808180688083E0913A01F0913B01B3
:100CB00080818F7D80838091EA018C3008F051C063
:100CC00061E089E00E9453028091EA01E82FF0E0A0
:100CD0009F01220F331FE20FF31FEB53FE4F908152
:100CE000907C996090831092EB011092EC016CE083
:100CF0000E94F8069CE0899FB001112440E050E07A
:100D00009A01260F371FF901EE0FFF1F2E0F3F1F0D
:100D1000F901EB53FE4F908196FD16C04F5F5F4F78
:100D20004C30510569F781110FC01092800082E0AC
:100D3000809381001092850010928400B19A809176
:100D40006F00826080936F00E091EA01F0E0CF01D4
:100D5000880F991FE80FF91FEB53FE4F80818064C5
:100D60008083CEE1D0E0CE010E948C000E94B402CC
:100D70000E947A039093270180932601CE010E945E
:100D8000FD0284E191E00E94EB02809126019091A6
:100D900027010E94FD0286E191E00E94EB0221966C
:100DA000C739D10501F7C6E9D0E0CE010E948C0019
:100DB0000E94B4020E947A03909327018093260137
:100DC000CE010E94FD0284E191E00E94EB0280913D
:100DD0002601909127010E94FD0286E191E00E9488
:100DE000EB022197CE31D10501F70E94FD01B9CF69
:100DF000991B79E004C0991F961708F0961B881F6D
:100E00007A95C9F780950895EE0FFF1F0590F4912C
:100E1000E02D09940E9411076894B1110C94A00769
:100E200008950E94850788F09F5798F0B92F992759
:100E3000B751B0F0E1F0660F771F881F991F1AF0C5
:100E4000BA95C9F714C0B13091F00E949F07B1E084
:100E500008950C949F07672F782F8827B85F39F083
:100E6000B93FCCF3869577956795B395D9F73EF45E
:100E700090958095709561957F4F8F4F9F4F089506
:100E8000E89409C097FB3EF4909580957095619524
:100E90007F4F8F4F9F4F9923A9F0F92F96E9BB27DA
:100EA0009395F695879577956795B795F111F8CF56
:100EB000FAF4BB0F11F460FF1BC06F5F7F4F8F4FC1
:100EC0009F4F16C0882311F096E911C0772321F0B7
:100ED0009EE8872F762F05C0662371F096E8862F4F
:100EE00070E060E02AF09A95660F771F881FDAF7A6
:100EF000880F9695879597F9089557FD9058440F58
:100F0000551F59F05F3F71F04795880F97FB991F68
:100F100061F09F3F79F08795089512161306140625
:100F2000551FF2CF4695F1DF08C0161617061806B2
:100F3000991FF1CF86957105610508940895E8948D
:100F4000BB2766277727CB0197F908950E94B90739
:100F50000C942A080E941C0838F00E94230820F0F4
:100F6000952311F00C9413080C94190811240C9477
:100F7000A0070E947D0770F3959FC1F3950F50E085
:100F8000551F629FF001729FBB27F00DB11D639F3B
:100F9000AA27F00DB11DAA1F649F6627B00DA11DE1
:100FA000661F829F2227B00DA11D621F739FB00D87
:100FB000A11D621F839FA00D611D221F749F3327F7
:100FC000A00D611D231F849F600D211D822F762F90
:100FD0006A2F11249F5750409AF0F1F088234AF06D
:100FE000EE0FFF1FBB1F661F771F881F91505040D9
:100FF000A9F79E3F510580F00C9413080C94A007AC
:101000005F3FE4F3983ED4F3869577956795B7955F
:10101000F795E7959F5FC1F7FE2B880F911D969579
:10102000879597F9089597F99F6780E870E060E0E9
:1010300008959FEF80EC089500240A941616170671
:1010400018060906089500240A94121613061406B9
:1010500005060895092E0394000C11F4882352F01C
:10106000BB0F40F4BF2B11F460FF04C06F5F7F4FD4
:101070008F4F9F4F089581E090E0F8940C94A3085F
:10108000052E97FB1EF400940E94570857FD07D0C9
:101090000E94720807FC03D04EF40C945708509538
:1010A0004095309521953F4F4F4F5F4F0895909554
:1010B0008095709561957F4F8F4F9F4F08950E9447
:1010C0009408A59F900DB49F900DA49F800D911D35
:1010D00011240895B7FF0C945F080E945F08821BDB
:1010E000930B0895A1E21A2EAA1BBB1BFD010DC094
:1010F000AA1FBB1FEE1FFF1FA217B307E407F507C8
:1011000020F0A21BB30BE40BF50B661F771F881FA3
:10111000991F1A9469F760957095809590959B0139
:10112000AC01BD01CF010895A29FB001B39FC001E2
:10113000A39F700D811D1124911DB29F700D811D03
:0A1140001124911D0895F894FFCFCB
:10114A000100000000000000940110015D013B0154
:08115A004F01DB012C002E0007
:107E0000112484B714BE81FFF0D085E080938100F7
:107E100082E08093C00088E18093C10086E0809377
:107E2000C20080E18093C4008EE0C9D0259A86E02C
:107E300020E33CEF91E0309385002093840096BBD3
:107E4000B09BFECF1D9AA8958150A9F7CC24DD24C4
:107E500088248394B5E0AB2EA1E19A2EF3E0BF2EE7
:107E6000A2D0813461F49FD0082FAFD0023811F036
:107E7000013811F484E001C083E08DD089C08234E0
:107E800011F484E103C0853419F485E0A6D080C0E4
:107E9000853579F488D0E82EFF2485D0082F10E0AE
:107EA000102F00270E291F29000F111F8ED06801E7
:107EB0006FC0863521F484E090D080E0DECF843638
:107EC00009F040C070D06FD0082F6DD080E0C81688
:107ED00080E7D80618F4F601B7BEE895C0E0D1E017
:107EE00062D089930C17E1F7F0E0CF16F0E7DF06D8
:107EF00018F0F601B7BEE89568D007B600FCFDCFD4
:107F0000A601A0E0B1E02C9130E011968C91119780
:107F100090E0982F8827822B932B1296FA010C0160
:107F200087BEE89511244E5F5F4FF1E0A038BF0790
:107F300051F7F601A7BEE89507B600FCFDCF97BE46
:107F4000E89526C08437B1F42ED02DD0F82E2BD052
:107F50003CD0F601EF2C8F010F5F1F4F84911BD097
:107F6000EA94F801C1F70894C11CD11CFA94CF0C13
:107F7000D11C0EC0853739F428D08EE10CD085E9AC
:107F80000AD08FE07ACF813511F488E018D01DD067
:107F900080E101D065CF982F8091C00085FFFCCF94
:107FA0009093C60008958091C00087FFFCCF809118
:107FB000C00084FD01C0A8958091C6000895E0E648
:107FC000F0E098E1908380830895EDDF803219F02E
:107FD00088E0F5DFFFCF84E1DECF1F93182FE3DFCA
:107FE0001150E9F7F2DF1F91089580E0E8DFEE27F6
:047FF000FF270994CA
:027FFE00040479
:0400000300007E007B
:00000001FF
