:100000000C945D000C9485000C9485000C94850084
:100010000C9485000C9485000C9485000C9485004C
:100020000C9485000C9485000C9485000C9485003C
:100030000C9485000C9485000C9485000C9485002C
:100040000C94BF020C9485000C948D020C946702F2
:100050000C9485000C9485000C9485000C9485000C
:100060000C9485000C9485000000000024002700FB
:100070002A0000000000250028002B0004040404CE
:100080000404040402020202020203030303030342
:10009000010204081020408001020408102001021F
:1000A00004081020000000080002010000030407FB
:1000B0000000000000000000720411241FBECFEFFA
:1000C000D8E0DEBFCDBF21E0AEE2B1E001C01D92BD
:1000D000A83DB207E1F711E0A0E0B1E0E6E0FAE008
:1000E00002C005900D92AE32B107D9F710E0CDE510
:1000F000D0E004C02197FE010E94A604CC35D107B0
:10010000C9F70E9409030C9401050C940000EDEA64
:10011000F0E02491E9E9F0E09491E5E8F0E0E49181
:10012000EE2309F43BC0222339F1233091F038F457
:100130002130A9F0223001F524B52F7D12C02730DF
:1001400091F02830A1F02430B9F4209180002F7D67
:1001500003C0209180002F77209380000DC024B52C
:100160002F7724BD09C02091B0002F7703C02091C4
:10017000B0002F7D2093B000F0E0EE0FFF1FEE588F
:10018000FF4FA591B4912FB7F894EC91811103C062
:1001900090959E2301C09E2B9C932FBF0895CF92D4
:1001A000DF92EF92FF920F931F93CF93DF936C0137
:1001B0007A018B01C0E0D0E0CE15DF0589F0D801CF
:1001C0006D918D01D601ED91FC910190F081E02DB2
:1001D000C6010995892B11F47E0102C02196ECCF4E
:1001E000C701DF91CF911F910F91FF90EF90DF90AA
:1001F000CF900895FC01918D828D981761F0828DCA
:10020000DF01A80FB11D5D968C91928D9F5F9F734A
:10021000928F90E008958FEF9FEF0895FC01918DEC
:10022000828D981731F0828DE80FF11D858D90E059
:1002300008958FEF9FEF0895FC01918D228D892FF6
:1002400090E0805C9F4F821B91098F7399270895DE
:100250008BE391E00E941C0121E0892B09F420E04E
:10026000822F0895FC01848DDF01A80FB11DA35AD0
:10027000BF4F2C91848D90E001968F739927848FC6
:10028000A689B7892C93A089B1898C9180648C93BD
:10029000938D848D981306C00288F389E02D8081A8
:1002A0008F7D80830895EF92FF920F931F93CF93DA
:1002B000DF93EC0181E0888F9B8D8C8D981305C0B6
:1002C000E889F989808185FD24C0F62E0B8D10E028
:1002D0000F5F1F4F0F731127E02E8C8DE8120CC09B
:1002E0000FB607FCFACFE889F989808185FFF5CF41
:1002F000CE010E943201F1CF8B8DFE01E80FF11D7E
:10030000E35AFF4FF0820B8FEA89FB89808180627C
:1003100007C0EE89FF896083E889F989808180645C
:10032000808381E090E0DF91CF911F910F91FF904A
:10033000EF900895CF93DF93EC01888D8823C9F067
:10034000EA89FB89808185FD05C0A889B9898C91DE
:1003500086FD0FC00FB607FCF5CF808185FFF2CF79
:10036000A889B9898C9185FFEDCFCE010E94320119
:10037000E7CFDF91CF91089580E090E0892B29F0BD
:100380000E94280181110C94000008953FB7F89451
:100390008091330190913401A0913501B0913601E3
:1003A00026B5A89B05C02F3F19F00196A11DB11DD0
:1003B0003FBFBA2FA92F982F8827820F911DA11D0B
:1003C000B11DBC01CD0142E0660F771F881F991F48
:1003D0004A95D1F70895009769F0FC01019000203B
:1003E000E9F73197AF01481B590BBC018BE391E052
:1003F0000C94CF0080E090E008958F929F92AF928E
:10040000BF920F931F93CF93DF93CDB7DEB7A19722
:100410000FB6F894DEBF0FBECDBF19A2423008F46C
:100420004AE08E010F5D1F4F842E912CA12CB12C20
:10043000A50194010E94D004E62FB901CA01015020
:100440001109EA3014F4E05D01C0E95CD801EC93D5
:10045000232B242B252B61F7C8010E94EB01A196C9
:100460000FB6F894DEBF0FBECDBFDF91CF911F91C5
:100470000F91BF90AF909F908F900895CF92DF9291
:10048000EF92FF92CF93DF936B017C01E0913B01F0
:10049000F0913C010190F081E02D6DE28BE391E061
:1004A0000995EC0166277727CB016C197D098E0928
:1004B0009F094AE00E94FD018C0F9D1FDF91CF91A3
:1004C000FF90EF90DF90CF9008950E94AC041F92B0
:1004D0000F920FB60F9211242F933F934F935F9378
:1004E0006F937F938F939F93AF93BF93EF93FF93FC
:1004F0008BE391E00E943201FF91EF91BF91AF91A8
:100500009F918F917F916F915F914F913F912F912B
:100510000F900FBE0F901F9018951F920F920FB65D
:100520000F9211242F938F939F93EF93FF93E0915A
:100530004B01F0914C018081E0915101F091520109
:1005400082FD12C09081809154018F5F8F73209142
:100550005501821751F0E0915401F0E0E55CFE4F47
:10056000958F8093540101C08081FF91EF919F91FD
:100570008F912F910F900FBE0F901F9018951F9283
:100580000F920FB60F9211242F933F938F939F9347
:10059000AF93BF9380912F0190913001A0913101D1
:1005A000B091320130912E0123E0230F2D3720F43A
:1005B0000196A11DB11D05C026E8230F0296A11DBD
:1005C000B11D20932E0180932F0190933001A093B1
:1005D0003101B09332018091330190913401A091A7
:1005E0003501B09136010196A11DB11D80933301F3
:1005F00090933401A0933501B0933601BF91AF9130
:100600009F918F913F912F910F900FBE0F901F9050
:100610001895789484B5826084BD84B5816084BD6A
:1006200085B5826085BD85B5816085BD80916E0090
:10063000816080936E0010928100809181008260C1
:1006400080938100809181008160809381008091FE
:1006500080008160809380008091B10084608093ED
:10066000B1008091B00081608093B00080917A00E9
:10067000846080937A0080917A00826080937A000F
:1006800080917A00816080937A0080917A008068FE
:1006900080937A001092C100E0914B01F0914C01DF
:1006A00082E08083E0914701F09148011082E0915F
:1006B0004901F0914A018FEC808310925301E0913F
:1006C0004F01F091500186E08083E0914D01F0915F
:1006D0004E01808180618083E0914D01F0914E0157
:1006E000808188608083E0914D01F0914E0180818E
:1006F00080688083E0914D01F0914E0180818F7D73
:100700008083C0E488248A9473E0972EA12CB12CB6
:1007100009E910E0E5E82E2EE0E03E2EC0937C00D3
:1007200080917A00806480937A0080917A0086FDBF
:10073000FCCFA091780080917900B0E0B82BB09305
:100740003A01A09339012FEF30E00E949F04A501E8
:1007500094010E94B104690130933801209337015C
:10076000F801F490F1018491882399F090E0880FCA
:10077000991FFC01E859FF4FA591B491FC01EE5877
:10078000FF4F659174918FB7F8949C919F299C932A
:100790008FBF211531054105510511F480E006C0D8
:1007A0002F3F31054105510521F481E00E9487006A
:1007B00044C0EDEAF0E084918330F9F048F48130F0
:1007C000B9F08230A1F584B5806284BD28BD35C002
:1007D0008730E9F0883019F1843049F58091800044
:1007E00080628093800030938B0020938A0025C024
:1007F00084B5806884BD27BD20C08091800080685A
:1008000080938000309389002093880016C08091E7
:10081000B00080688093B0002093B3000EC0809138
:10082000B00080628093B0002093B40006C0F0E86E
:10083000CF16D1040CF0B9CFB1CF84E191E00E9482
:10084000EB016091390170913A01072E000C880B81
:10085000990B97FF03C00E943E0203C04AE00E942A
:10086000FD018EE191E00E94EB01609137017091F2
:100870003801072E000C880B990B97FF03C00E94CC
:100880003E0203C04AE00E94FD018AE291E00E941C
:10089000EB010E94C6012B013C0192E0C92ED12C34
:1008A000E12CF12C0E94C601DC01CB0184199509D1
:1008B000A609B709883E9340A105B10598F328EE33
:1008C000420E23E0521E611C711CCA94CD28CE2812
:1008D000CF2829F0C12CD12C7601C394E3CF0E94FC
:1008E000BC011CCFEBE3F1E01382128288EE93E0AF
:1008F000A0E0B0E084839583A683B78388E091E08D
:100900009183808385EC90E09587848784EC90E0E8
:100910009787868780EC90E0918B808B81EC90E0CC
:10092000938B828B82EC90E0958B848B86EC90E0AD
:10093000978B868B118E128E138E148E08950E94C3
:10094000F204B7FF0895821B930B0895EE0FFF1F6B
:100950000590F491E02D099481E090E0F8940C94D6
:100960000105052E97FB1EF400940E94C80457FD54
:1009700007D00E94D00407FC03D04EF40C94C804A6
:1009800050954095309521953F4F4F4F5F4F0895BB
:1009900090958095709561957F4F8F4F9F4F0895EB
:1009A000A1E21A2EAA1BBB1BFD010DC0AA1FBB1F73
:1009B000EE1FFF1FA217B307E407F50720F0A21BE5
:1009C000B30BE40BF50B661F771F881F991F1A9452
:1009D00069F760957095809590959B01AC01BD017C
:1009E000CF010895A29FB001B39FC001A39F700DD6
:1009F000811D1124911DB29F700D811D1124911D27
:060A00000895F894FFCFF9
:100A060001000000000000005301CF001C01FA00A5
:100A16000E019A0173656E736F72203D20000920E6
:0E0A26006F7574707574203D20000D0A00007D
:00000001FF
